:1000000040C064C063C062C061C060C05FC05EC009
:100010005DC09CC15BC05AC059C058C057C056C0D3
:1000200055C054C053C000000000370034003100F8
:1000300000000000380035003200000000003600EB
:100040003300300004040404040404040202020225
:10005000020203030303030301020408102040808B
:100060000102040810200102040810200000000012
:100070000000000000030405000000000000000074
:10008000890011241FBECFE5D4E0DEBFCDBF10E054
:10009000A0E6B0E0ECECF6E002C005900D92A236CE
:1000A000B107D9F710E0A2E6B0E001C01D92A73772
:1000B000B107E1F710E0C2E8D0E003C02297FE01EB
:1000C000FFD2C038D107D1F7F5D2FEC299CF82FD59
:1000D00002C02FEF01C02FE783FD2F7B90FD2F7D06
:1000E00080FD2F7E91FD277F81FD2B7F92FD2D7F4F
:1000F00093FD2E7F822F0895282F84FD02C08FEF5D
:1001000001C08FE725FD8F7B26FD8F7D27FD8F7E2C
:10011000089582E690E062E070E043E050E024E081
:1001200030E0FDD008951F93282F162F8BE06CE050
:1001300041E081D28BE06CE041E0212F7CD288E06D
:1001400061E003D261E070E080E090E053D188E0AC
:1001500060E0FBD11F9108951F9385E033D2019792
:1001600011F017EF01C01FEF86E02CD2019709F0C4
:100170001B7F87E027D2019709F01D7F89E022D2FB
:10018000019709F01E7F812F1F9108951F93CF9330
:10019000DF9382E690E09ED090936B0080936A009C
:1001A000DBDF182F80936D00C0916A00D0916B0047
:1001B00080916800909169008C179D0721F48091CF
:1001C0006C008117C1F0CE0197DF80936000CE01F3
:1001D0007EDF80936100CF5FDF4F29F48FEF809344
:1001E00060008093610080916000812380936000B3
:1001F0006091610098DF80916A0090916B0090930C
:1002000069008093680080916D0080936C00DF919D
:10021000CF911F9108958DE061E071D18BE061E095
:100220006ED18CE061E06BD188E061E068D185E05F
:1002300060E065D186E060E062D187E060E05FD198
:1002400089E060E05CD18CE060E07FD188E060E034
:100250007CD18DE061E079D18FEF6FEF64DF82E6D2
:1002600090E038D0909369008093680075DF8093A8
:100270006C000895EF92FF920F931F938C01FC0185
:100280008481A0D1F82EE92E8CE090E00ED1F80107
:10029000828161E05AD18CE090E007D1F80182813F
:1002A00060E053D18F2D9E2D1F910F91FF90EF9005
:1002B00008950F931F938C01FC01808161E045D16B
:1002C0008CE090E0F2D0F801808160E03ED11F9197
:1002D0000F910895EF92FF920F931F93CF93DF93A7
:1002E0007C01E7DF00E010E0C0E0D0E0C701C2DF42
:1002F0000C2E02C0880F991F0A94E2F7082B192BC5
:100300002196C031D10591F7980120953095C9010A
:10031000DF91CF911F910F91FF90EF9008950F9370
:100320001F93FC01862F142F022F60837183428359
:1003300053832483358361E0E2D0812F61E0DFD0F5
:10034000802F60E0DCD01F910F9108951F920F92D3
:100350000FB60F9211242F933F934F935F936F9398
:100360007F938F939F93AF93BF93209172003091AF
:100370007300409174005091750070917600DA011D
:10038000C9010296A11DB11D672F6A5F6D3730F05C
:100390006D57DA01C9010396A11DB11D6093760066
:1003A0008093720090937300A0937400B0937500D3
:1003B00080916E0090916F00A0917000B0917100DB
:1003C0000196A11DB11D80936E0090936F00A093C4
:1003D0007000B0937100BF91AF919F918F917F9109
:1003E0006F915F914F913F912F910F900FBE0F90A2
:1003F0001F9018959B01AC017FB7F89480916E0017
:1004000090916F00A0917000B091710062B708B632
:1004100000FE05C06F3F19F00196A11DB11D7FBF01
:10042000BA2FA92F982F8827860F911DA11DB11DC6
:1004300063E0880F991FAA1FBB1F6A95D1F7BC0103
:100440002EC0FFB7F89480916E0090916F00A0913C
:100450007000B0917100E2B708B600FE05C0EF3F32
:1004600019F00196A11DB11DFFBFBA2FA92F982F1A
:1004700088278E0F911DA11DB11DE3E0880F991FE4
:10048000AA1FBB1FEA95D1F7861B970B885E934086
:10049000C0F2215030404040504068517C4F2115FF
:1004A00031054105510569F60895019739F0019725
:1004B00029F0880F991F01970197F1F70895789413
:1004C00083B7826083BF83B7816083BF89B7816050
:1004D00089BF1EBC8EB582608EBD8EB581608EBD1B
:1004E0008FB581608FBD85B5846085BD85B580641D
:1004F00085BD329A319A309A379A1AB80895482FA2
:1005000050E0CA01885A9F4FFC0124914C5B5F4F19
:10051000FA0184918823C1F0E82FF0E0EE0FFF1F6D
:10052000EA5DFF4FA591B491662341F49FB7F8941B
:100530008C91209582238C939FBF08959FB7F89448
:100540008C91822B8C939FBF0895482F50E0CA0155
:1005500084599F4FFC012491CA01885A9F4FFC0186
:1005600034914C5B5F4FFA019491992351F122230E
:1005700081F0243039F0253049F0233051F48FB523
:100580008F7702C08FB58F7D8FBD03C085B58F7DFE
:1005900085BDE92FF0E0EE0FFF1FE05DFF4FA59155
:1005A000B491662341F49FB7F8948C9130958323DE
:1005B0008C939FBF08959FB7F8948C91832B8C9355
:1005C0009FBF0895682F70E0CB0184599F4FFC01B5
:1005D0002491CB01885A9F4FFC0144916C5B7F4F63
:1005E000FB019491992319F420E030E022C02223EA
:1005F00081F0243039F0253049F0233051F48FB5A3
:100600008F7702C08FB58F7D8FBD03C085B58F7D7D
:1006100085BD892F90E0880F991F865C9F4FFC0154
:10062000A591B4918C9120E030E0842311F021E079
:1006300030E0C9010895BF92CF92DF92EF92FF920E
:100640000F931F93CF93DF93E82EF62EB42EC7E0BF
:10065000D0E0022F10E087E0C82ED12CBB2059F447
:10066000B6016C1B7D0BC80102C0959587956A95F4
:10067000E2F7BC0107C0B8010C2E02C07595679562
:100680000A94E2F761708E2D60DF8F2D61E05DDFEF
:100690008F2D60E05ADF21979FEFCF3FD907F1F60A
:1006A000DF91CF911F910F91FF90EF90DF90CF904E
:1006B000BF90089504DFAFDD69DDFECFEE0FFF1FB1
:0C06C0000590F491E02D0994F894FFCF10
:0206CC00FFFF2E
:00000001FF
